:020000041000EA
:1000000000B5324B212058609868022188439860DF
:10001000D860186158612E4B002199600221596106
:100020000121F02299502B49196001219960352056
:1000300000F044F80222904214D00621196600F024
:1000400034F8196E01211966002018661A6600F04E
:100050002CF8196E196E196E052000F02FF8012189
:100060000842F9D1002199601B49196000215960AB
:100070001A491B48016001219960EB211966A021F2
:10008000196600F012F800219960164914480160C1
:100090000121996001BC002800D000471248134993
:1000A000086003C880F30888084703B5996A0420EC
:1000B0000142FBD001200142F8D103BD02B5186610
:1000C0001866FFF7F2FF186E186E02BD00000240BE
:1000D000000000180000070000035F00212200005C
:1000E000F4000018222000A00001001008ED00E03C
:1000F00000000000000000000000000074B24E7A12
:1001000000200420F7010010CB010010CD010010E9
:10011000C9010010C9010010C9010010C901001077
:10012000C9010010C9010010C9010010CF01001061
:10013000C9010010C9010010D1010010D301001045
:10014000C1010010C1010010C1010010C101001067
:10015000C1010010C1010010C1010010C101001057
:10016000C1010010C1010010C1010010C101001047
:10017000C1010010C1010010C1010010C101001037
:10018000C1010010C1010010C1010010C101001027
:10019000C1010010C1010010C1010010C101001017
:1001A000C1010010C1010010C1010010C101001007
:1001B000C1010010C1010010C1010010C1010010F7
:1001C000EFF30580103800BE00BE00BE00BE00BECA
:1001D00000BE00BEF2EB887158670010786700100F
:1001E0003802001090A31AE71E481F49086006C88D
:1001F00081F3088810471D480068002801D019487D
:10020000F3E70DA40ECC002902D000F012F8F9E7B4
:100210001749184A002000E001C19142FCD116495B
:100220008847164988471649884700BEFDE701C937
:1002300001C29A42FBD3704778670010C0000020CB
:10024000B41500206C7C0010000004200000042085
:100250006C7C00100010042000100420000000003E
:10026000704700000000000008ED00E0000000D032
:10027000B4150020C4270020E91B00102103001042
:10028000E11B0010F8B5C0460448054B10B5834289
:1002900003D0044B002B00D0984710BDB4150020AC
:1002A000B41500200000000006480749091A8B1009
:1002B000C90FC91810B5491003D0044B002B00D04A
:1002C000984710BDB4150020B415002000000000B0
:1002D00010B5074C2378002B09D1FFF7D5FF054B4C
:1002E000002B02D0044800E000BF0123237010BDA2
:1002F000401900200000000030630010054B10B5CD
:10030000002B03D00449054800E000BFFFF7CCFFF5
:1003100010BDC046000000004419002030630010EA
:10032000F0B5CE46474680B589B001F09FFDD02498
:100330001920802500F044F8FA202406AD046562F7
:10034000C00000F0BDFE1B4B002698461A4B1B4F09
:1003500099463B68202168465A6804F03DFD002814
:1003600018D04146684604F023FC00281AD0962095
:100370006561400000F0A4FE9620A561400000F0F9
:100380009FFE3B68202168465A68012604F024FD40
:100390000028E6D1002EEAD16420656100F090FECD
:1003A0000026D6E74946684604F002FC0028F1D052
:1003B0006561F1E7306300103463001068100020BD
:1003C0000123D0228340120693629361094A83007D
:1003D0009A1811684022514080320A400649C000F4
:1003E0008C4663441A60054B9C4605236044436079
:1003F0007047C04604C0014004D0014000400140A5
:100400008023DB051868000F7047C0460FB400B5A5
:10041000084883B001F07AFD049B002B07D005A9A2
:100420001800019101F072FB034801F06FFD0120FB
:1004300001F084FB386300104863001070B5EFF3DF
:10044000108C72B60D4D2B68002BFCD0BFF35F8F64
:100450000724CB08C618C05C01230C40A3401C0035
:100460000440034207D118433070BFF35F8F2C6004
:100470008CF3108870BD1000FFF7C8FF2C0100D06E
:10048000F8B54746CE46884680B5EFF3108C72B675
:10049000214D2C68002CFCD0BFF35F8F9A422CD8E2
:1004A000D4080727055D061901241740BC402C42DB
:1004B0001FD007210127894609E0D408055D0619E8
:1004C0004C4639001440A1400C00294211D00132A1
:1004D0009342F2D201204042BFF35F8F00220E4BC5
:1004E0001A608CF3108800280FDBC0BCB946B046F8
:1004F000F8BD254310003570EEE7BFF35F8F002392
:100500002B608CF31088012040424346002BECD036
:100510000898FFF77BFFC0462C0100D0044A1078F2
:10052000431CDBB2172B00D9102313707047C04651
:10053000A00F002010B5064B064C82B001000093BE
:1005400018221F232000FFF79BFF02B010BDC046FA
:100550004C630010042300200021044B044ABFF325
:100560005F8F02C39342FAD17047C046000100D0AA
:10057000800100D0054B064A1360064A13605360A1
:100580009360D36013615361936170478080808072
:1005900000E400E004E400E01F2318401E3B834019
:1005A000002905D0C021044A490053501360704708
:1005B000802201498B50FAE700E100E001228240ED
:1005C000034B1B6813405A1E9341D8B27047C04674
:1005D00000E100E001238340014A13607047C046F8
:1005E00000E200E0064B10309B688000C358054ACB
:1005F00000209B1A2F229A424041C0B27047C04649
:1006000000ED00E0A40F002070B50D00EFF31086A0
:1006100072B60F4A1368002BFCD0BFF35F8F0D4BEF
:1006200010309B6884001B590B4A934203D09D42B3
:1006300001D001F035F8074B9B681D51BFF35F8F68
:10064000BFF35F8F0022024B1A6086F3108870BDE3
:10065000240100D000ED00E0C1010010F0B55746C4
:100660004E46DE464546E0B585B0060000911700CF
:10067000EFF3108B72B66A4A1368002BFCD0BFF3FD
:100680005F8F0025674B5D579A46002D00DAA9E081
:100690006B00654C01935B199B009846A146C144D1
:1006A0004B4652469B7910361370604BB6009B68E0
:1006B00099590B1B2F2B33D95D4B994200D0ACE0DD
:1006C000019B42469C465B4B6544AD0063535A4BCD
:1006D0000232A218043B9B1A1B05584A5B0D651990
:1006E00013436B80564B0121AB80FF23AB71009B02
:1006F000EF71AB604B460B4319004C4B9B68995113
:10070000BFF35F8FBFF35F8F0022454B1A608BF3FF
:10071000108805B0F0BCBB46B246A946A046F0BD65
:1007200001200A008243D3798C46BB4231D845462A
:10073000130044491B1B5B415943090D3D4B635357
:100740003D4B02356519043B5B1B1B053B4D5B0DA7
:100750002B43AA464D466B800425AC465546E044E3
:10076000131F44441B1B1B055B0D1D434B46997116
:1007700000999D8099604946DF71334B01431360B6
:10078000BBE75800C01880002018C179B9422FD9A2
:1007900002000623D356002BF3DA02932B4B61465B
:1007A0000393131D9A4604235B429C46E144504642
:1007B0004B461B1A1B055B0D9C46204B95719846BA
:1007C0006346404603439380019B5A199200039B62
:1007D000A418A380029B1C4AA371009B2260E771AE
:1007E000A3608AE700F05CFF002553465D574FE7A2
:1007F000908802934005131D9A46031561469C4656
:100800004046D444634604302018181AE0230005FB
:10081000400D1B0218430390C5E700F041FF4FE76E
:10082000240100D0BD270020A40F002000ED00E02F
:10083000C101001000A1FFFFD40F002000E0FFFF66
:1008400001BDFFFFAAAA00000148804701BD0000CA
:1008500070B501240443EFF30581EFF3108C72B6F9
:10086000214A1368002BFCD0BFF35F8F1F4B05009C
:100870001F4AED1A6D416A43120D1E4D8900AE6884
:1008800052B27658A6421CD00621595691421CD02D
:1008900012215956914222D01E215956914220D000
:1008A0002A2159560324914210D0134B19781A70FB
:1008B0008171BFF35F8F00220B4B1A608CF310889D
:1008C00070BDAB680D4C5C50EFE700246100091966
:1008D00089005B18FF21997109499980E5E7012496
:1008E000F4E70224F2E7C046240100D0A40F002060
:1008F000AAAA000000ED00E0BD270020C101001001
:1009000001BDFFFF10B5084B084C82B001000093F9
:10091000002205232000FFF7B3FD002801DB1F2381
:10092000181A02B010BDC04668630010C12700202D
:10093000024B9C46614489000160704740000034CE
:1009400070B5114C114DAC420FD2FF262368002B1D
:100950000CD0FFF7E3FD01002000FFF7E9FFA680C0
:10096000BFF35F8F0834AC42F0D370BDFFF7D6FD04
:1009700001002000FFF7DCFF2671BFF35F8F083412
:10098000AC42E3D3F1E7C046AC150020B41500201B
:1009900010B50400FFF7C2FD01002000FFF7C8FFFB
:1009A000FF232371BFF35F8F10BDC04610B5040055
:1009B0000120FFF7BFFD034BC3189B002360BFF36B
:1009C0005F8F10BD40000034034B9C46614489009A
:1009D0000160BFF35F8F7047400000340A4B196815
:1009E000EFF3108072B60A68002AFCD0BFF35F8F65
:1009F0001B68BFF35F8F00221A6080F3108840BF2E
:100A0000002000217047C0469C270020F0B5DE463C
:100A100057464E464546E0B583B0EFF305820323C3
:100A20001340B54A990052580091904601229A40CD
:100A30009346B24B1A60B24B01935B46B148436395
:100A4000434608229B5E9946002B3ADA43469B8830
:100A50001BB2002B00DB9DE043469B79002B00D0AE
:100A6000E1E0434608241C5F002C20DB43465A6922
:100A700063001B19DB00D3189D68DC686B1C00D178
:100A800003E1A048009984466144826A0B69AE1A6A
:100A90009B1A9E4213D35A46036A1A420FD09948B2
:100AA00000F0B0FB8C4202DCC7D18542C5D940BF03
:100AB00003B0F0BCBB46B246A946A046F0BD0D61EE
:100AC000EDE7424652695B0092464B44DB009A4494
:100AD00053469E68DF6800F095FB8F42B6DC00D17C
:100AE000F8E0002F00DAD9E05246534654691B69FA
:100AF000019A934200D1CCE0414652460820085E5C
:100B00005288000421001043984704000D00230080
:100B10002B4300D1C2E0002D00DBDFE030003900C4
:100B2000001BA94153469860D96000229A5E002AB2
:100B300000DA8BE743465D6953009C18E4002C19EA
:100B4000A768E4688C4200DD80E702D1874200D9C3
:100B50007CE74646328108360DE08C4200D1C6E083
:100B60001E000023F25E002A0ADB53009C18E400FA
:100B70002C19A768E4689B18DB00EB188C42ECDDAD
:100B800053461A804B46338043469B881BB2002B4A
:100B900000DA61E743461A69EFF3108172B6136811
:100BA000002BFCD0BFF35F8F43469E880123424653
:100BB0005B42938036B21369BFF35F8F00221A60E5
:100BC00081F31088002E00DA46E743465D6908335A
:100BD00042469C467700BF19FF00EF19BB6860468C
:100BE00098460823D15E9246FC68002907DA0EE099
:100BF000A24246D018000023C15E002906DB4B004C
:100C00005B18DB00EB18DA68A242F1DD5246068081
:100C10000023FE5E3980002EDCDA904643469B7945
:100C2000002B00D11DE70023424693714346464600
:100C30000821595E08364B1C00D138E747468946E3
:100C4000556902E006004B1C18D04B005B18DB0016
:100C5000E8180A008C46E95E43881BB2002BF1DAE3
:100C600001235B42DC178360C4604A4503D03180B6
:100C70003B8903803A81E1464B1CE6D1B8464C469D
:100C8000F2E69A684245B5D9C0E7631C00D0F8E6A1
:100C900005E7200023699847002825D1534642469E
:100CA0001B8813811269EFF3108372B61168002953
:100CB000FCD0BFF35F8F4246514652880A804246BD
:100CC000494651801269BFF35F8F0021116083F3A1
:100CD0001088BBE6864200D803E7B7E6094800F073
:100CE00091FA001969411DE7656824680FE787429A
:100CF00000D835E744E7C046802700203C70054017
:100D00000D0A00100040054070B52E4C2569002DDD
:100D100004D00A212C48FFF70BFE70BD2B4E032197
:100D2000300000F065FAE660FFF7F8FB284B03227D
:100D30009C46D02322701B061B6801216370254B43
:100D40006044A3600F2380002061022063806369F8
:100D50004942A18019800231198647311D835852BA
:100D600018315A5275325C39995218320131995200
:100D7000183201319952183201319952083518321E
:100D80009D5202311832995218320131995218325B
:100D90000131995218320131995218320131995268
:100DA0001832013199520C4B0C49DC60013035622C
:100DB000FFF72AFC01210320FFF7EEFB084B1D6023
:100DC000A7E7C046EC0F00209C270020004005400C
:100DD00040000034FFFF1000802700200D0A0010A3
:100DE0003860054000487047EC0F0020F8B51F0040
:100DF00008AB1B7804001600002B08D100F00AFA9B
:100E000032003B00121A8B41002B00DA53E02269BA
:100E1000EFF3108072B61368002BFCD0BFF35F8F26
:100E20000223E15E63694A005218D2009B18002930
:100E300037DB1A8862802269BFF35F8F0025156057
:100E400080F31088069A9E60DF601A61079A5A61E3
:100E50005A8801325204520C101C002A1FD082B250
:100E60005880080410432669EFF3108772B6326881
:100E7000002AFCD0BFF35F8FA2881A80A18023696B
:100E8000BFF35F8F00221A6087F310880B49237825
:100E90008C4601329A40E36863441A60F8BD012031
:100EA000DDE72369BFF35F8F00221A6080F31088AB
:100EB00001204042F2E70020F0E7C0463C2000005D
:100EC00070B501000469EFF3108C72B62068002839
:100ED000FCD0BFF35F8F02200D5E4C6968004019A3
:100EE000C0002418002D37DB208848800869BFF334
:100EF0005F8F002606608CF31088E3606388049897
:100F0000013320615B0405985B0CA26060611A1CD0
:100F1000002B1FD093B22804628018430A69EFF3B4
:100F2000108C72B61368002BFCD0BFF35F8F8B88D8
:100F300023808D800B69BFF35F8F00221A608CF3D2
:100F400010880B7801329A40CB6808498C4663447C
:100F50001A6070BD0122DDE70B69BFF35F8F0022CD
:100F60001A608CF3108801204042F2E73C20000018
:100F700010B543890A1493421ADD53009B18426945
:100F8000DB00D3180469EFF3108C72B62268002AD4
:100F9000FCD0BFF35F8F5A88090494B2090C8A42CF
:100FA00008D00369BFF35F8F00221A608CF31088AA
:100FB000002010BD8022120214435C8001230269CC
:100FC0008371BFF35F8F002111608CF31088044997
:100FD00002788C469340C268012062441360E8E7BF
:100FE0003C20000040787047F0B504000D00062654
:100FF0007642F717C64636196F4100B582B08F4268
:1010000014D811D000F006F932003B00121A8B41BF
:10101000002B17DC002B47D02000290000F038F906
:1010200002B080BCB846F0BD8642EBD90022002356
:1010300016001F0000F0EEF832003B00121A8B4140
:10104000002BE7DD00F0E6F832003B00121A8B417E
:10105000002B0ADB00230193154B32000093154847
:101060003B00FFF72DFF0028D6DB00239C46B0464F
:10107000114A124E736A9F4204D8B16A8845CBD98F
:101080009F42C9D11168EFF3108072B60B68002B34
:10109000FCD0BFF35F8F1368BFF35F8F61461960A9
:1010A00080F3108820BFE5E7002AB5D0CAE7C04624
:1010B000DD090010EC0F00209C27002000400540B7
:1010C00070B5060000F0A6F8FA2204000D00002317
:1010D00030000021920000F09BFC80230019694140
:1010E0001B06994202D3012002494042FFF77CFFD0
:1010F00070BDC046FFFFFF7FF0B5D6464F4646465F
:10110000C0B504000D0082B0EFF305878946002FBB
:101110000ED0344900204B6AAB4203D38A6A0130B7
:10112000A24226D302B0E0BCBA46B146A846F0BD02
:101130002D4B9846DB689A46434650461E7800F091
:1011400061F80B00514602000436B60071582000C9
:101150008E1A2900801A99418F4211DC0ED020BFCF
:10116000204A0020536A4B45DCD3926A0130A242E8
:10117000D8D25B1B5A1E9341D8B2D3E78642EED930
:1011800000F048F822002B00121A8B41002B1ADBCA
:1011900000230193154B2200009340462B00FFF7DC
:1011A0008FFE011E0FDD0F4B5A6A4A4517D39B6A0B
:1011B000A34212D34046FFF7DBFE0A4A0020536ADF
:1011C0004B45AFD3D1E7074A0020536A4B45A9D31B
:1011D000926A0120A242A5D2CBE74A45EAD120BFBC
:1011E000E8E7C04600400540EC0F0020DD09001094
:1011F00010B5024A0248FFF721F910BD84630010C0
:10120000082300200300416A0A00986A596A8A424A
:10121000FAD17047034B596A0A00986A596A914299
:10122000FAD170470040054070B504000D00174A20
:10123000536A1900966A536A8B42FAD1300019003A
:1012400024184D41AB4216D813D0104A2B00526AD5
:10125000954203D90D494A6A9A42FCD39A4207D172
:101260000A4A02E0516A994202D1916AA142F9D335
:1012700070BDA642E9D9054B5B6A1C005A1CEFD031
:10128000012301246442E5175B42E3E70040054087
:10129000064A536A9942FCD807D1044B02E05A6AC5
:1012A000914202D19A6A8242F9D3704700400540C8
:1012B000F8B5DE464E4657464546E0B58B46050036
:1012C0000A991800160000F015FB0A9B6C001F021B
:1012D000324B64199C46A4006444636881469F4273
:1012E00000D967602B1FDBB29846012B30D9C02391
:1012F00080229B01E31812011A60294BAD00595955
:101300009A4600291BD17301E026226853401E40F3
:10131000802342465B01E3181E60012A30D98023F6
:1013200080229B01E31812011A6053464A46676007
:101330005A51F0BCBB46B246A946A046F8BD586912
:1013400000F0D8FA013043001B18033BFDD2DAE766
:101350005B46012BCBD1C02303229B01E3181A600B
:10136000023AA3681A42FCD07301E0262268AD005D
:1013700053401E4080230A4A5B019246E3181E60D8
:101380005A462168514003220A401A6001225B46F6
:101390009A40A3681A42FCD0C1E7C04600800040D2
:1013A0000C230020F0B546464F46D646C0B51F0078
:1013B000344B44009C462418A40064446368884667
:1013C0001600FF2B02D880235B006360031FDBB293
:1013D0009A46012B30D9C02380229B01E3181201C9
:1013E0001A60294B85005959994600291BD1730170
:1013F000E026226853401E40802352465B01E318DA
:101400001E60012A30D9802380229B01E31812013B
:101410001A6080235B0063604B465F51E0BCBA46B4
:10142000B146A846F0BD586900F064FA01304300A7
:101430001B18033BFDD2DAE74346012BCBD1C02377
:1014400003229B01E3181A60023AA3681A42FCD0F7
:101450007301E0262268850053401E4080230A4A1B
:101460005B019146E3181E60424621685140032209
:101470000A401A60012342469340A2681342FCD0FE
:10148000C1E7C046008000400C230020014B8000D3
:10149000C05870470C230020F8B5040021481E00F6
:1014A00017000D0000F026FA0100380000F022FAC3
:1014B000069B36041B031E432368002B20DB1A4BBC
:1014C0001A49E3185A1E93418022920194465B42C6
:1014D0001B0B174A1B0363441360164A13601F005B
:1014E0000A689743FBD1144B2560E2182123A060C2
:1014F00013602368002BFCDA0823E6601360F8BD54
:101500003F2322681340AB42D9D1A3681B051B0DB2
:101510008342D4D1EE22E368D2021340B342CED14B
:10152000EDE7C046001BB7000040FDBF08C000400B
:1015300000E0004000F000400430000010B58024BE
:101540001C4BE4051C6000281AD001231A4C1843D8
:101550001A4BDC611A4C44401C625962986280212B
:10156000144BC9051960174817490860E021C904E0
:101570001960002A07D18022144B12061A6010BD90
:101580000E4BD861EBE753019B1A9B009A188023FE
:1015900012015B049A4209D213000D490B60074BFC
:1015A0005A608022094BD2051A60E8E7094B1A00FD
:1015B000F3E7C04600B00540D3C007B00080054047
:1015C0002D3FF84FFCFF01000820014000A005401E
:1015D00070270020FFFFFF008023024A9B000B437F
:1015E000D362704700800540142310B501001888AD
:1015F00004331B88984710BD162310B501001888C6
:1016000002331B88984710BDF8B54746CE4680B5D3
:101610000F1E19D014239946043304000025012617
:1016200098464B461888434621681B88984701C452
:10163000431E9841013540420640AF42F1D130008F
:10164000C0BCB946B046F8BD0126F8E7142370B512
:101650000400188804331B880D00054998470300CF
:101660000020002C01DB0130A04029009847C04633
:1016700055420000AA23064A1B0113608D235B001C
:10168000D3600449044B19605368002BFCDA70479F
:101690000040024000B0FA00006002407047C046BF
:1016A00010B50148FEF7B2FEA863001070B5074DF3
:1016B000074EB54209D20024013E761BB60808CD7C
:1016C000984723000134B342F9D170BDE86200109D
:1016D00024630010054B064A06491A60064A074B68
:1016E0001A6010000B689843FBD1704700E000407F
:1016F000BFCDFBFE08C00040FE7F3C0000F0004074
:10170000044BDB6C002B03D18022034BD2021A6006
:101710007047C046000011504C201150044A054B40
:101720001A60054A1368DB018033FBD17047C0465D
:10173000FFFFFF0100F0004008C000404022034BC3
:101740009A675A671A67DA667047C04600F0014028
:1017500010B5FEF701FF10BDF8B52749274C284DFD
:10176000641AA6103200302E00D9302228009200D0
:1017700000F0BEF9BC2C3BD830202F232C19640775
:10178000204A801BE40F9B1B052B16D93700002C29
:1017900002D0B300771CEA50001B33199B004108AC
:1017A000EB18C900C9181A605A6008339942FAD177
:1017B000012303421CD09843C619B300EA50731C9E
:1017C0002F2E15D09B00EA50B31C2E2E10D09B005C
:1017D000EA50F31C2D2E0BD09B00EA50331D2C2E0B
:1017E00006D09B00EA50731D2B2E01D09B00EA50BF
:1017F000054B9D60F8BDC04600010010C0010010FF
:1018000000000020C101001000ED00E0002310B531
:10181000294C82B0A367FFF72DFF0122274B1A60E6
:10182000636C012BFCD10322254B1A60224A936B77
:10183000012BFCD1013300930121224A22480433B9
:10184000FFF72AFE052301210093204A2048FFF7D5
:1018500023FE0022022104201E4BFFF7A3FD0022DD
:10186000012105201C4BFFF79DFD002200210720D0
:101870001A4BFFF797FD002200210820174BFFF7B6
:1018800091FD8023DB000093002200210920134BEF
:10189000FFF70EFD0022104B00210620FFF782FD0E
:1018A0000420FFF7F3FD0E4900F024F801000020AA
:1018B000FFF792FE02B010BD008000403CB0004037
:1018C00030B00040002F685900800240008C8647ED
:1018D00000C00240001BB70040597307006CDC02D7
:1018E00040420F0001480421014B1847101000200E
:1018F00009160010114A936F9B0813D210665166A7
:10190000002905D0FFE7FFE7FFE7516F106F704731
:1019100004B5002801D00020C04304F0A5FC00213C
:1019200004BDC046F0B5146E556E576F166FFFF7C5
:10193000E5FF1466556657671667F0BD000000D0D6
:10194000132370B51D78012D19D014DD1F48FFF742
:1019500053FE06001E48FFF74FFE1E4C802231004A
:10196000200000F0C5F8022D2DD01B48FFF73CFEEB
:101970001A4B186070BD1A4B164CA364F5E7184B50
:10198000144C23606360A360E36023616361A3611F
:10199000E36123626362A362E36223636363A3631D
:1019A000E36323646364A364E36423656365A365FD
:1019B000E36523666366A366E36623676367A367DD
:1019C000E367A364D1E7064BA364CEE7534400006A
:1019D00053460000401700204C3300009827002099
:1019E000E519001007B5604601880A0A0230DF2AAF
:1019F000FAD1C9B2820804D3028840880004104397
:101A000000E00068014A5050039007BD40170020D5
:101A100051434343C9188C46110C83B24B4310B455
:101A2000040C614392B280B2504362431C041B0C0D
:101A3000001910BC59411304120CC01851416144E3
:101A400070470000132310B512481C78FFF7D4FD2F
:101A50000100012C0AD003DD80220F4800F048F875
:101A60000E48FFF7C1FD0E4B186010BD0A4C542202
:101A7000200000F03DF80B4B6365A365E36523662A
:101A80006366A366E36623676367A367E36723620E
:101A9000E361E5E753460000401800204C330000A6
:101AA00098270020A91A001007B5604601880A0A85
:101AB0000230DF2AFAD1C9B2820804D302884088F2
:101AC0000004104300E00068014A5050039007BD35
:101AD0004018002001480421014B18472010002025
:101AE00009160010014B1B68184700002010002049
:101AF000014B5B68184700002010002010B500283B
:101B000000D110BD00F0B6F9FBE7C04610B5094A98
:101B10000300146884B0002C08D00122009106480C
:101B2000524203A9A047012004B010BD00F0EEF915
:101B30000020F9E76C270020FD1A001000BEFDE729
:101B4000094A03001068002805D00849C3188B42D1
:101B500007D81360704706480449C31810608B42C9
:101B6000F7D901204042F5E7682300200000042057
:101B7000C4270020030010B508001100002B05D178
:101B8000044B1A685B6800F017F910BD0120404251
:101B9000FBE7C046986400100300013B10B5080045
:101BA0001400012B06D801230022210000F084F844
:101BB000200010BD01204042FBE7C046012040420A
:101BC0007047C046012040427047C0460120404255
:101BD0007047C0460300022200209A4240417047ED
:101BE00010B5FFF7ABFFC04670B5FFF75FFD074DBF
:101BF000074EB54209D20024013E761BB60808CD37
:101C0000984723000134B342F9D170BD246300101A
:101C100030630010030010B5080011001B689847DE
:101C200010BDC046F0B5C64600B5437D07000D00A7
:101C30001600002B38D0002A2EDD00216A1E9046A7
:101C40006A5C037D4C1C00200A2A0CD0A64216D0E8
:101C500043461B5D21000D3B5A4253416A5CDBB297
:101C60004C1C0A2AF2D1002BF0D1884217DB02214A
:101C700010483B689847A64207D02000E8E7864214
:101C800003DD311A3B6828189847AD19013D2B78C0
:101C90000D3B5A4253413B7580BCB846F0BD091A12
:101CA0003B6828189847E2E7036811002800984726
:101CB000F2E7C046F4640010F0B5DE4657464E46E3
:101CC0004546E0B585B017001C0006000D00FFF783
:101CD000A1FA0023314A12184B41802109068B4298
:101CE00002D301222E4B52422E4908008A4604F0AC
:101CF000DBFA01906B1C03D1300003F0A3FE05005A
:101D0000002C26D0284B9846284B1C68002C15D058
:101D1000002F21D1264F02E02469002C0ED0236829
:101D2000002BF9D03B68002B01D09C42F4D120005D
:101D30002A003100C0472469002CF0D1019B002B00
:101D400028D1280005B0F0BCBB46B246A946A04643
:101D5000F0BD184B9846D7E7154B994602ABDF1DEF
:101D60000A239B4602E02469002CE7D02368002B5D
:101D7000F9D04B461B68002B01D0A342F3D12A00B7
:101D800031002000C0475B460122390020003B7033
:101D9000C047E8E7504604F057FAD2E740420F0048
:101DA000FFFFFF7FAC150020251C00105C230020E6
:101DB00064230020151C0010F8B557464E464546D2
:101DC000DE4698461A4BE0B59B461A4B07000E00BC
:101DD00091469A46184D5B461C68002C03D115E0CD
:101DE0002469002C12D02B68002B01D0A342F7D11C
:101DF000A368002BF4D03100380098470028EFDDAD
:101E0000F0BCBB46B246A946A046F8BD53465B6A45
:101E1000984508D85246926A4A4502D30220404269
:101E2000EEE79845FAD101200021FFF7FDF9D2E74E
:101E30005C23002000400540642300200A4A136808
:101E4000002B05D10CE01A001B691032002B07D0C3
:101E50009842F8D1002902D10369136001617047EB
:101E60000029FCD01060FAE75C23002010B500F0D8
:101E70008DFA10BDF0B5CE46474680B583B06B46AF
:101E80000600DD1D2870FFF7C5F900231A4A121855
:101E90004B41802109068B4202D30122174B52424B
:101EA00017490800884604F0FFF9164B81461C6864
:101EB000002C14D0144F02E02469002C0FD02368AA
:101EC000002BF9D03B68002B01D09C42F4D12000BC
:101ED00001222900FFF7A6FE2469002CEFD14B4612
:101EE000002B05D1300003B0C0BCB946B046F0BDF0
:101EF000404604F0A9F9F5E740420F00FFFFFF7FDD
:101F0000AC1500205C2300206423002070B5040081
:101F100003F098FD01230100050001222000FFF7D6
:101F2000CBFE084B1C68002C06D06368002B05D044
:101F300098472469002CF8D1280070BD2469002C32
:101F4000F3D1F9E75C2300207047C0460022014B23
:101F50001A707047BE2700204B790020FF2B0BD151
:101F60008B79002B08D1CB79012B05D1082A03D915
:101F7000024B8A7809301A707047C046BE2700208D
:101F80000120704710B5012901D0012010BD13496F
:101F90005379107909781B02034300209942F5D147
:101FA0005378012B08D0022BF0D1002064220021AD
:101FB000FFF7C4FA0120E9E7D37891781B021943AF
:101FC000DB0507D54A0A100001231A407E33194069
:101FD000FFF73CFB01204A0A4042F5E7BE270020FC
:101FE00000487047C065001070B50500140001205E
:101FF000012909D153780020012B05D16379127989
:102000001B021343072B00D070BD21002800024A99
:102010009F3301F05FFAF7E71865001001230370A2
:1020200000487047F86400104B780A781B0213438D
:102030008A7810B512041A43CB781B0613439622F4
:10204000D200934200D010BD002201201100404276
:10205000FFF7FCFA024B1860024B19607047C0464C
:10206000FC2200200023002010B5024B1878FEF758
:10207000B1FA10BDBF270020154B70B51A68002AB1
:1020800022D0EFF3108172B610680028FCD0BFF3A5
:102090005F8F00200F4A596010701B68BFF35F8F7D
:1020A000186081F31088002400250B4E3078FEF76D
:1020B00085FA002804D1002400252900200070BDE5
:1020C0003078FEF787FAF8E7FA240025A400ECE759
:1020D00078270020C0270020BF27002070B504000B
:1020E00000200E0001F016FB002836D0002001F081
:1020F00027FB002831D0FFF78DF80023184A12186B
:102100004B41802109068B4216D2164D280004F05F
:10211000CBF8002821D0002001F0FCFA00280FD1D4
:1021200001200021404200F009FD03246442280000
:1021300004F08AF8200070BD01220B4B5242E4E704
:10214000002001F0FDFA0028EAD021003200002032
:1021500001F000FB041EEAD1E7E703246442E9E74B
:1021600040420F00A0270020FFFFFF7F10B5FFF7C0
:1021700051F800230E4A12184B41802109068B4268
:1021800002D301220B4B52420B4C200004F08CF87E
:1021900000280CD001200021404200F0CFFC00209C
:1021A00001F022FB0028F5D1200004F04DF810BD0D
:1021B00040420F00FFFFFF7FA0270020F8B5DE465A
:1021C000574680B505000C00FFF724F80023374A76
:1021D00012184B41802109068B4202D30122344B55
:1021E0005242344908008A4604F05EF8002803D1C0
:1021F000C0BCBB46B246F8BD002001F08BFA0028F7
:102200004AD00026002C43DD2B4B9B4614E0A91935
:10221000002001F023FB070001200021404200F0D4
:102220008DFC002001F0E0FAFEF7F4FF224BF619D6
:1022300018605960B4422BDD002001F02FFBA71B72
:102240000200B84200DD3A00002AE0D1012000215E
:10225000404200F073FC002001F0C6FA002001F0BB
:1022600059FA002814D0002001F018FB0028E1D111
:10227000FEF7D0FF5B460F001A685B6800218446BA
:102280000E4812184B419F4202D8D3D19445D1D960
:10229000504603F0D9FFABE700200021064B186041
:1022A0005960504603F0D0FFA2E7C04640420F00FD
:1022B000FFFFFF7FA02700203817002020A1070084
:1022C00030B52B4C85B00021200003F0D5FF00284D
:1022D0001CD1284B1A68002A16D0EFF3108172B671
:1022E00010680028FCD0BFF35F8F0124224859609A
:1022F00002781B68D2B20470BFF35F8F00201860B1
:1023000081F31088002A17D005B030BD01200021CC
:10231000404200F013FC002001F012FA05002000FA
:1023200003F092FF002DEFD0144B1B68002BEBD075
:10233000134A10689847E7E7FEF754FD0400FEF7DC
:1023400069FFFA220023920012184B4180210906EE
:102350008B4202D301220B4B5242012102910021F8
:102360000191094920000091FEF740FDCCE7C046ED
:10237000A027002078270020C0270020FC22002072
:1023800000230020FFFFFF7F79200010D02310B52D
:102390001B0684B01C68FEF725FDFEF723FEA04255
:1023A00002D0002004B010BD2A4B002100201B7871
:1023B00001F070FD28480368002B47D00120FEF78C
:1023C000A1FAFF23254C264920701840FEF71CF97E
:1023D00020780121FEF7E0F80520FEF703F9002838
:1023E00026D1082200211F48FFF77CFBFEF7FAFCEC
:1023F0000400FEF70FFFFA220023920012184B414F
:10240000802109068B4202D30122174B524201213F
:10241000029100210191154920000091FEF7E6FC90
:102420000028BEDB12480121FFF708FD0120B9E7B3
:102430000120FEF77FF80B4B01001800FEF7C4FAED
:10244000002205200B49FEF709F9EBE7FEF7A0FA99
:10245000B4E7C04674670010A0270020BF27002003
:10246000C122001078270020FFFFFF7F7920001095
:102470003010002069200010004870475C66001092
:10248000004870470866001010B50400174803782C
:10249000002B20D0002C06D1154B16484380063B5C
:1024A000FF3B038010BD052C19D8134BA400E05846
:1024B00012490123013804E001330A800231142B50
:1024C0000FD0C25C002AF7D1C022DBB25B009200C1
:1024D00008481343E5E7112100F01AF8DAE7002075
:1024E000E0E7CA2303489B00DBE7C046A82700209B
:1024F0000904000034230020F0650010362300207A
:1025000010B5024800F0D8F810BDC0469027002052
:1025100030B54B1E012900D1A7E0664A11780D099C
:102520002C0030349F2900D9A2E00470012B00D187
:10253000BEE00F21147821400C003034092900D965
:1025400098E04470022B00D1B2E0547825092900AC
:1025500030319F2C00D990E08170032B00D1A7E08F
:102560000F2121400C003034092900D987E0C470C4
:10257000042B00D19CE094782509290030319F2C50
:1025800000D97FE00171052B00D191E00F2121409E
:102590000C003034092900D976E04471062B00D1B3
:1025A00086E0D4782509290030319F2C00D96EE0CF
:1025B0008171072B00D17BE00F2121400C003034CA
:1025C000092966D8C471082B00D171E01479250956
:1025D000290030319F2C5FD80172092B68D00F2160
:1025E00021400C003034092958D844720A2B5FD09E
:1025F00054792509290030319F2C52D881720B2B38
:1026000056D00F2121400C00303409294BD8C47218
:102610000C2B4DD094792509290030319F2C00D9FD
:10262000073101730D2B43D00F2121400C003034B2
:10263000092901D937310C0044730E2B38D0D179D8
:102640000C09220030329F2900D9073282730F2BE8
:102650002ED00F220A4011003731092A01D830321A
:102660001100C173102B23D010300023037030BD34
:1026700007345AE737310C0063E707316CE737312D
:102680000C0074E707317DE737310C0085E707312F
:102690008EE737310C0095E707319DE737310C00A5
:1026A000A3E70731AAE737310C00C4720C2BB1D174
:1026B000C018DAE79027002010B588B004000D227A
:1026C00000216846FFF70EFA0D22002104A8FFF74B
:1026D00009FA4B236A466846137004A90D2203F0D9
:1026E000ABFD1521082220006944FFF701FA08B06C
:1026F00010BDC046F8B500F043F90C23194DFF2278
:10270000AB6705201849FDF7A9FF184C40220021AE
:102710002000FFF7E7F94027002301262121144A72
:1027200066702783A260136063545F31618445390A
:102730006354104A10496360E2602787A1620B600E
:102740006362E26203F0C0FD80239B052E64EB64AC
:1027500090230A4A0120EA508022094B5202DA648F
:10276000F8BDC04600001150E10400206C23002099
:1027700084001050000110508000105010D0010053
:102780000020115010B501210520FDF705FF10BDF7
:1027900010B500220021024800F012F910BDC04619
:1027A0008C230020044B1970002904D08021902331
:1027B000024A8902D1507047BA27002000201150E8
:1027C0000B785B0602D14B78052B00D070478A78D6
:1027D000014B1A60FAE7C04600001150F0B5C6463A
:1027E000C87800B58007830F1800012B60D08F7860
:1027F0000A794B797F213940FC091B024E001343B3
:10280000334D32195201AA1897700127674057704B
:1028100000275B055B0DD7701383D076B846CA00DE
:10282000012C32D02B4FBC468F016244BC46AC44D5
:102830006746BA6047461760002932D0264AC90069
:1028400090466246414451603F223F339343022801
:1028500037D0224937190A687F01D3180B60204905
:10286000EF19FA608B422ED836197601AD19EB7E3E
:102870001C499B064A4013438022120613436A6890
:102880001360012080BCB846F0BD174FBC468F01D5
:102890006244BC46AC446746BA62474617600029AA
:1028A00008D1002364012C196360104BE360E8E752
:1028B0000020E7E70B4AC900904662464144516256
:1028C000C2E75B00C5E7FEF7EBFEFA68CCE7C0465F
:1028D0006C23002084001050040010507427002046
:1028E000FF0F1050000010508000105000011050D9
:1028F00010B503F0E9FC10BD10B57F200C0020409E
:102900004000E409110000191A00034B4001C018EF
:1029100000F056F8012010BD6C2300207F23180022
:1029200010B50840CA090B4203D107497D3B9B1AE9
:102930008B66400080188022044B40010021C018A3
:10294000120103F0C9FC10BD002011506C230020BF
:102950007F22130010B50B400A4200D110BDC909F7
:102960005B005B1804485B01C01800230022034988
:10297000C37003F0B1FCF1E76C230020FFF7FFFF09
:1029800080220A4B520410B51A60094B09491A609B
:1029900010000B689843FBD18022002152010648A9
:1029A000FFF7A0F80922054B5A6710BD00E0004070
:1029B00000F0004008C0004000001050000011501E
:1029C000002310B5C3820133828283760161040043
:1029D00003F042FC002804D080219023074A89029A
:1029E000D150200003F058FC002802D001232377A7
:1029F00010BD200003F060FCFAE7C0460020115033
:102A00007047C0467047C04600207047002070479E
:102A10007047C0467047C0467047C0467047C046C2
:102A2000024B5878431E9841C0B27047141E0020D4
:102A3000024B18784007C00F7047C046141E002094
:102A4000F0B5D6464F464646C0B5314B07009A46CC
:102A50001B780E00FF2B01D0012044E0002941D05B
:102A6000002154222B48FFF73DF800222A4C2B4B23
:102A700020001A70FDF78CFF294B1C60294C2000A8
:102A8000143CFDF793FF200001F00CFE264B274D70
:102A90001C60274B002B2BD02800FFF7BFFA254BDB
:102AA0002A78186024490024894622490023884650
:102AB00010E043461B6862019B18002B12D05B6834
:102AC000002B0FD098472A780134E4B2511C230020
:102AD000A1420FDBA242ECD89B1A5B014B445B681E
:102AE000002BEFD10020E0BCBA46B146A846F0BDAD
:102AF0002A78D7E75346310038001F70FFF7FAFDF8
:102B00000028EFD03800FFF73DFE0120EBE7C0467C
:102B100064100020141E00200C1E0020BB27002083
:102B2000681E00205C1000206C1E0020B9270020C9
:102B30001D200010641C002018670010F0B5DE4650
:102B400057464E464546E0B5C84B91B002931B78B8
:102B5000FF2B00D13EE1C64BC64E9B465F46C64B9F
:102B60000DAC0193C54B009335686A69EFF3108192
:102B700072B61368002BFCD0BFF35F8FA9612800E9
:102B8000210001F0BDFB6A69AB69BFF35F8F0021D3
:102B9000116083F31088002800D11BE16378082BB3
:102BA000E2D89B00FB589F466368002BDCD0A068EE
:102BB0009847D9E77F222179AF4D0A405300EB189F
:102BC0009846C809804440460123303005799D432A
:102BD0000571057903339D430571002A00D100E199
:102BE0004346A74A1B7D1278934200D3EFE0A54AE3
:102BF0005B011568ED18002D00D1EBE0A368627948
:102C00002078AD69A847AFE79F4A1378002B00D121
:102C1000E0E01378013BDBB213701378002BA3D1F3
:102C20000122954D01212B78042013432B7034236E
:102C3000EA5C8A43EA54EA5C8243EA540133EA5C80
:102C40008A43EA54EA5C8243EA54237800209B4694
:102C500000F0A0FC602223791A40602A00D1EFE046
:102C6000402A00D1F5E0DB06DB0E012B00D113E199
:102C7000022B00D1C7E0002B00D0E1E0202A00D1D8
:102C80001CE2002A00D0DBE06379092B00D9D7E0F1
:102C90007E4A9B00D3589F46774D2B78DB0700D4A4
:102CA00062E7FFF7BBFE5FE7019BDB78DB0700D441
:102CB0005AE76068FFF7A6FE56E76F4D2B78DB07F3
:102CC00000D451E728780007C00FFFF7A5FE4BE7B7
:102CD00023786A4999468B46694B6A4998468A46E1
:102CE00039001A7847460023B04600254E468946EB
:102CF00010E053461B686A019B18002B00D176E058
:102D0000DB68300098473A780135EDB2511C2B0052
:102D10008D4244DC9542ECD39B1A5B015B44EFE7A8
:102D2000237858499946564B8A4698463100BB4607
:102D30004E461A7800250023474689460FE0534641
:102D40001B686A019B18002B55D0DB683000984740
:102D50003A780135EDB2511C2B008D4207DC9542CB
:102D6000EDD39B1A009A5B0194466344EDE7019D05
:102D7000542200212800FEF7B5FE1022FF2144480E
:102D8000FEF7B0FE28002022FF2114304E465F4699
:102D9000FEF7A8FE00F0F4FBFFF73CFEE4E6364D3C
:102DA000542200212800FEF79DFE1022FF21281D3D
:102DB000FEF798FE28002022FF21143046464F4699
:102DC000FEF790FE00F0DCFB2379AB70CCE6501CE4
:102DD000984213DA11B0F0BCBB46B246A946A046F1
:102DE000F0BDA3686279207800F0E8FBBCE64646B7
:102DF0004F46214DE6E74E465F46CBE71F4D9B1AF7
:102E00005B015D19FAE67023217A0B4218D1C809DB
:102E100082460F330B405B0098461948EB18534429
:102E20001B7D00789946834266D216485B01006894
:102E300081469944002A00D15FE14B46002B68D1BE
:102E400020780021FFF76AFD80212078FFF766FDDA
:102E50008AE6104800F09EFB012158460EAAFFF7B3
:102E6000C3F8002800D07FE6EAE7C04664100020DF
:102E7000706600106C1E0020141E002018670010E1
:102E8000B9270020641C0020BB2700209466001096
:102E9000181E0020E91F0010237A0F2BD0D8CF4A2C
:102EA000EB181B791578AB423ED3691C9942C7DBFE
:102EB0005D1BCB4B6D01ED18686900F06BFB0121C8
:102EC00058466B690EAA9847002800D04CE660224D
:102ED000150023791D401A42B2D163790A3B012BB8
:102EE000AED800F057FB63790A2B00D199E1584620
:102EF0000EA900F0D9FA37E6431C4B4500DAF7E09B
:102F00004B461B1A5B019946B5488144002A00D103
:102F1000F3E04B46586900F03DFB4B460121584613
:102F20005B690EAA98479CE7AE4A5B011568ED18ED
:102F3000002DC1D184E7A37999466B789945D6D005
:102F40006B78002B00D033E14B466B70002B00D127
:102F50002BE148460138C0B2FFF792FA002800D1B1
:102F60007EE143780793022B00D079E10122C179F9
:102F7000B1468B11491113400A40302112015B0107
:102F800013432A78A8468A4313432B7009239A4691
:102F900082445646BA46C37882781B021343C3184C
:102FA00005938E4B04938E4B08938E4B09938E4B57
:102FB0000A93059BB34200D855E1737801220B2B8D
:102FC00003D13378F278F6187378042B00D044E1FB
:102FD000059B00279B1B9BB20693049B0B921D78BD
:102FE000002303931BE0099A7B011568ED18002D5F
:102FF00000D132E1310058462B69069A9847844641
:10300000082803D9069A824200D313E1049B0137B2
:103010001D78FFB26B1C03979F4200DD1DE1BD428E
:10302000E1D8039B5D1B089B6D019C466544E1E76D
:103030006B780CAA02321370584601230EA900F0D7
:1030400049FA91E5E3881A0AD8B20F2A00D9F7E6BF
:1030500066499300CB589F460EA800F0A1FA584647
:10306000A179FFF795FB02222B7813432B707BE5A8
:10307000E388012B00D0E3E608222B7858469343DF
:103080000EA92B7000F010FA6EE5022029780CAB27
:103090009A1C8B068908DB0F01400B4313805846AE
:1030A00002230EA900F016FA5EE5E388012B00D09A
:1030B000C6E608222B7813432B7018E7237A0F2BD0
:1030C00000D9BDE6EB181D79444B1B789D4228D2F0
:1030D000444B6D011B685D19002D00D1B0E6686995
:1030E00000F058FA012158466B690EAA9847B8E6D5
:1030F000002A00D0A4E6002399466279022013003A
:1031000003928343012B15D0002A00D098E62B00B0
:103110004344534430331B790CAA9B07DB0F023224
:10312000BCE75A1CAA4200DA8AE6ED1A2C4B6D0164
:10313000ED18D4E7E388002B12D1029B1878039B8B
:10314000012B23D0FFF7EAFB43460221EB1853443F
:1031500030331A790A4301211A711A790A431A7114
:103160004B46002B00D1FFE4586900F013FA4B46A0
:1031700001215B690EAA58469847002000F00AFA20
:103180003523EB5CDB0700D5EEE4B0E6FFF7E0FBB0
:1031900043460221EB18534430331A798A431A719B
:1031A0001A7903998A431A71DAE7FFF733FC9EE62E
:1031B00000215846FFF7F6FA5846FFF799FBAB781F
:1031C000074903930491054B064998461A780591DF
:1031D000002329001D008A461BE0C046B9270020B5
:1031E00018670010641C0020281E0020BC66001018
:1031F000059B6A011B689B18002B4DD0DB68584665
:10320000984743461A780135EDB2511C2B008D4288
:103210002EDC9542ECD39B1A049A5B0194466344DE
:10322000ECE70CAB9A1C584601230EA9157000F070
:1032300051F999E40B9A012A4FD0002A3CD000237F
:10324000B07804E00133DBB20F71934234D2C1187D
:10325000C9B241440D79FF2DF4D04E46454657463C
:1032600000236B70ECE54E465746FFF7D1FB3EE678
:103270005546542200212800FEF734FC1022FF217D
:10328000281DFEF72FFC28002022FF211430FEF716
:1032900029FC039BAB7057E65546FAE7FEF7A0FE04
:1032A000021E00D1CCE5D37891781B020B4358461F
:1032B0000EA900F00FF9D4E565463B002A00310065
:1032C0000A9800F08DFEAC46049B039A1B78664476
:1032D0000133934200DB6CE6BFE7174B2969994243
:1032E000ADD1079AABE7FFF78FFB021E00D1A7E530
:1032F000584613780EA900F0EDF8B2E52189FFF7E2
:10330000C3F8021EF4D19BE5022A0FD0FFF77EFB23
:10331000021EC8D194E5FFF7AFF8021E00D18FE579
:10332000122358460EA900F0D5F89AE5FFF7A8F841
:10333000021EB8D184E5C046A1390010F8B5574641
:103340004E46DE4645460C00E0B516001F00002A3A
:103350003CD01F4B00259A46702399461D4B9B4637
:1033600017E05B462000997800F0FCFD00281FD094
:1033700021004046FFF732FA002819D0A378DA0975
:10338000012A1CD00A9A013513702378E418B5423B
:103390001CDA6378052B0BD1E3789B079B0FBB42AC
:1033A00006D153464A461B789846A3781A42D8D08D
:1033B0000020F0BCBB46B246A946A046F8BD0B9A19
:1033C000013513702378E418B542E2DB0120F0E701
:1033D00064100020141E0020702270B5094B0C00F0
:1033E0001D788B781A4201D0002070BD064B20005A
:1033F000997800F0B7FD0028F6D021002800FFF7EB
:10340000EDF9F2E764100020141E00200B007F206D
:1034100010B51840DB0934334000044AC018044B8F
:103420001168C01800F05AFD10BDC046681E00208B
:10343000141E00200B007F2010B51840DB09343328
:103440004000044AC018044B1168C01800F06EFD1B
:1034500010BDC046681E0020141E002070B57F24D9
:103460000F480C4064000419CD09641930342079E8
:10347000C00701D5002070BD0126257909483543D4
:1034800000782571FFF738FA0028F4D1012223795A
:10349000934323712379033293432371EAE7C046B0
:1034A000141E00206410002070B5094C060008228C
:1034B00020000D00FEF71CFB00238021E360A360C9
:1034C0002B783000994300220023FFF7C7FF70BD1F
:1034D000F41D0020F8B5CE4647469046264E80B5EE
:1034E0008146082230000D001F00FEF701FB434615
:1034F000B3600023F381EC79AB7924021C43231CD5
:10350000BC4200D93B1C9FB2B381002C0ED0002FCF
:1035100018D04346002B2CD03B1C402F1BD89FB209
:1035200033787F2B1CD80021144A0FE080212B78A0
:103530000022994348460023FFF790FFC0BCB946DC
:10354000B046F8BD7F230022317899433B004846BE
:10355000FFF784FFF2E740239FB233787F2BE2D955
:10356000064C3A0041462000FEF7C2FA80212200B4
:10357000ECE70020E2E7C046F41D0020B41D002067
:1035800010B5142200210248FEF7ACFA10BDC04667
:10359000F41D0020014B18617047C046F41D002047
:1035A00010B5054C010008222000FEF7A1FA002307
:1035B000A360E36010BDC046F41D002070B5384C18
:1035C0001D0023780600DA09C9098A4210D00020BC
:1035D000002D00D070BD21003000FFF7F1F8236905
:1035E000002B03D022000321300098470120F1E78F
:1035F000A0687F2B05D8002834D02A002949FEF77F
:1036000077FAE289A1685219E38892B24919E281F6
:10361000A160934214D03F2D12D9A389981A051C9A
:1036200080B240282AD82078ADB27F2828D800213F
:103630009A4232D01B4A2B003000FFF70FFFC9E738
:103640002369002B05D02200022130009847002872
:103650000AD0802123780022994330000023FFF70D
:10366000FDFEB7E70020B5E700213000FFF756F96F
:1036700030008021FFF752F90120ABE74025D2E767
:103680009A4207D0074C2A002000FEF731FA802129
:103690002200D0E780210022CDE70022CBE7C04600
:1036A000F41D0020B41D002070B50500FFF7B8F927
:1036B000002800D170BDFFF7BBF90028FAD1C8235C
:1036C0006B43124CE618F1780029F3D010331C1923
:1036D000200000F0FFFD3F28ECD90020F178FFF733
:1036E00095FE0028E6D0200000F0F4FD3F2808D920
:1036F000074BEA01D218F17840230020FFF7AEFE15
:10370000D8E7F1780020FFF795FED3E7EC1C002006
:10371000681C002010B50400FFF782F9002801D1D1
:10372000002010BDFFF784F90028F9D1C8226243B8
:10373000024B01309B181B791840F2E7EC1C00206B
:10374000C82310B543430248181800F0A5FD10BD6A
:10375000FC1C0020F0B5C824C646802344431F4FFC
:103760001034050000B53C195B029A4200D31C4A94
:10377000200092B200F012FE8046FFF751F90028B7
:1037800003D1404680BCB846F0BDFFF751F9002890
:10379000F7D1C8266E43BE19F378002BF1D0200074
:1037A00000F098FD3F28ECD90020F178FFF72EFEBD
:1037B0000028E6D0200000F08DFD3F2808D9094BF5
:1037C000EA01D218F17840230020FFF747FED8E73E
:1037D000F1780020FFF72EFED3E7C046EC1C002056
:1037E000FFFF0000681C0020F8B50600FFF718F97D
:1037F000002801D10020F8BDFFF71AF90028F9D1FF
:10380000C82474432500134F2435ED19280000F017
:1038100043FD0028EED03F190020B978FFF7F6FDF0
:103820000028E7D00C4BF401E418210028004022C6
:1038300000F0B4FDB978051E08D003002200002076
:10384000FFF70CFE0028D5D02800D4E70020FFF7B2
:10385000F1FDCFE7EC1C0020A81C002070B5C824A7
:1038600044430C4B0500E41880235B029A4200D3CA
:10387000094A200092B200F059FE0600200000F034
:103880000BFD3F2801D8300070BD2800FFF7ACFFCA
:10389000F9E7C046101D0020FFFF0000C82310B547
:1038A00043430248181800F015FD10BD101D0020FC
:1038B000F0B50025184C83B0C82200212000FEF787
:1038C00011F9164B21001D70FF236371E1235B0288
:1038D000A360200008234022A37338310095073BE2
:1038E000103000F0A3FC2700012321002000260057
:1038F000402278310093B837243000F097FCC0366E
:103900003800FDF745F83000FDF742F8E561276221
:103910002663656303B0F0BDEC1C0020E81C0020AA
:103920000B4B196B00290AD01A6A002A0DD000220D
:103930001A621A63DA6100225A63012070471A6A18
:10394000002AFAD0D9611962F7E71A63F3E7C04693
:10395000EC1C002070B50F4C052200212000FEF762
:10396000C1F80D4D2B78DA0707D50C4C9B070CD509
:103970000121200000F0B6FE70BD2000103000F0E4
:1039800091FE2B78054C9B07F2D4200000F08AFEB4
:10399000EEE7C046EC1C0020E81C0020101D0020B3
:1039A000F0B54B79060083B0022B02D18B79022B44
:1039B00003D00025280003B0F0BD214FBB78002BB9
:1039C000F7D18B7809253B700C780C196378242B80
:1039D0000BD1082A02D80FE0AA420DD32378E418AD
:1039E0005D196378ADB2242BF6D0052B08D0042BDB
:1039F00002D163790A2B11D00020FFF755FED9E7D9
:103A000021003000FFF7E8FC0028D2D0A3787B70BB
:103A100023785D19E4186378ADB2E8E7094B27789D
:103A2000019301330093022202233000E119FFF7D2
:103A300085FC0028BDD00E35ED19ADB2DCE7C046DF
:103A4000EC1C0020EE1C0020F8B560231400127856
:103A5000050013400020202B07D1304A63792779D5
:103A600016781B023B439E4200D0F8BD6378222BA0
:103A70001AD007D8202B34D0212BF6D101293ED0E3
:103A80000120F2E7232BF0D1012940D00329F7D1FF
:103A9000234B002BF4D0E178A378090200201943CE
:103AA00000E000BF0120E0E7012930D00329E7D181
:103AB00001252E00A378E478023924021C431471F6
:103AC000264024321000714000F00CFE154B002BF4
:103AD000D6D06208002031002A4000E000BF01205B
:103AE000C3E701290BD00329CAD10F4B002BC7D044
:103AF000083200201100FEF797FA0120B5E70723EE
:103B000021002800094AFFF7E5FC0120ADE721006C
:103B10002800FFF7C9FC0120A7E7C046EC1C0020E5
:103B2000000000000000000029200010F41C00200C
:103B3000F0B54F464646D646364DC0B5EA781F002A
:103B400080460C00AB788A423BD08B4210D00020DC
:103B5000E0BCBA46B146A846F0BD2F4B002B04D0BE
:103B60002E4800F0AFFB002851D00020FFF79CFD4D
:103B7000AB78A34201D00120EAE7294B002B02D009
:103B8000002000E000BF0020FFF72EFE0028F2D149
:103B9000244C200000F080FB0028ECD1002FEAD05C
:103BA000BF06E8D1243C4046A178FFF72FFC00284F
:103BB000E1D0002300224046A178FFF74FFC01200E
:103BC000C6E710239A46184EAA4431005046BAB2AE
:103BD00000F0ACFC154B002BBFD06B79FF2BBCD099
:103BE000002FBAD0F219914603E00136B145B4D0A6
:103BF0006B7932789A42F8D1504600F063FB002886
:103C0000F3D15346103B597900E000BFEDE700E0E7
:103C100000BFAAE7EC1C002000000000FC1C0020F4
:103C200000000000101D0020681C002000000000A3
:103C30009322F0B5134C85B0002120009200FDF7CF
:103C400051FF23002000802640270F4D4D33760082
:103C5000FF332930029500930022002300210397AF
:103C60000196FF3000F0D6F94035201D283400239E
:103C700001220021039702950196009400F0CAF9F1
:103C800005B0F0BDB01F0020301F002010B5054C5E
:103C9000200000F0F5F920002538FF3800F0F0F999
:103CA000012010BDD820002070B5084C0025200050
:103CB0003130FF30257000F0F5FC20000C3000F0B2
:103CC000F1FC2A23FF33E554657170BDB01F00205D
:103CD000F8B557464546DE464E46E0B54B79804638
:103CE0000F00FF2B27D1424B0C7899462A234946D7
:103CF000FF33CB5C002B1ED14E79002E1BD1BB783D
:103D00003C190B703B79002B12D098235B004B447D
:103D10009A460C234B449B46A5186378052B05D186
:103D200010E02378E4186378052B0BD0A542F8D86F
:103D3000E01B80B200E00020F0BCBB46B246A946C2
:103D4000A046F8BDA542F3D921004046FFF744FB49
:103D50000028F0D0A3780136F6B2DB09012B29D078
:103D6000504600F09FFC2A234946A278FF33CA54EC
:103D7000637922791B0213431E4A5B0594465B0D4F
:103D8000942163445A4253414A4602204900525CFE
:103D90005B00824313434A46535451464046083918
:103DA00000F0D6F90028C6D02378E4183B79B34256
:103DB000B3D8BDE7584600F075FC5A46A3780C3AD4
:103DC0005371637921791B020B430A495B058C46C9
:103DD0005B0D634459424B41022011795B008143E2
:103DE0000B43594600200839137100F07FF9DBE7D7
:103DF000B01F002000FEFFFF70B505002A201F4CF9
:103E0000FF30205C1E006379884203D000208B4283
:103E10001DD070BD9A235B00E35A002B0DD1184BC7
:103E2000002B04D000201749B2B200E000BF2800E8
:103E3000154900F08DF90120EBE720009623313081
:103E40005B00E158B2B2FF3000F070FBE7E70F4BC8
:103E5000002B04D031040020090C00E000BF0C4C02
:103E60002800210000F042F90028E4D132002100AE
:103E7000280000F007F90120CBE7C046B01F002062
:103E800000000000301F0020D820002000000000AB
:103E9000B41F002000B5030083B0002910D000201B
:103EA000012B07D80A78002A04D00B48C2540120FD
:103EB000012A01D003B000BD1800FEF7C1FDF9E7EB
:103EC000012301A900200B80FEF7BAFD0028F1D0E4
:103ED0000122014B1A70EDE7081E0020037870B52F
:103EE000DB0704000E00DD0F002B17D103785B0702
:103EF00001D5280070BD01213000494202F0C4F90B
:103F00002378DB07DD0F002B0AD123785B0708D469
:103F10000422237801251343237002E00025E8E7FB
:103F20000025300002F090F9E3E7C04670B50C00C0
:103F3000012106004942200002F0A6F933785B0710
:103F4000DD0F002B04DB200002F07EF9280070BD9D
:103F50003378DB0704D40422337893433370F2E7D9
:103F60000025F0E7437902791B021343C2785B0511
:103F700092075B0D920F022A1DD0032A0CD000205D
:103F8000012A08D102394A425141124A94466144F9
:103F900099424041C0B2704702394A1E91410E4ACF
:103FA000494211408022D200944600206144994247
:103FB0004041C0B2EFE7022905D0002040229A42DA
:103FC0004041C0B2E7E7054A981843425841C0B2A1
:103FD000E1E7C046FF03000040FCFFFF00FEFFFFDB
:103FE0008A1870B5914207D27F264C78052C04D0F0
:103FF0000C7809198A42F8D870BD34008D782C40AD
:1040000064000419ED0963550C7809198A42ECD84B
:10401000F2E7C046F0B5C64600B582B0150008AA62
:1040200040CA040017880BAA1288012090460A0093
:104030002178024081432000114321703A0000930F
:1040400031000123083000F0F1F8002E01D0002FDC
:1040500008D10A9B012063604346638002B080BCA4
:10406000B846F0BD26001C363000FCF791FC00235A
:10407000002D01D0330000266361A661E9E7C04648
:1040800001207047F8B502240B7807001C406342FA
:104090005C41144B64421C40134B08009C460830A2
:1040A0000D001600644400F0F7F8002807D1002E38
:1040B00005D0344203D101242B781C4201D00020CA
:1040C000F8BD38006978FFF7A1F90028F7D02B7800
:1040D0001C42F4D10023002238006978FFF7BEF9B2
:1040E000EEE7C04640FEFFFFFF010000F8B50D00FF
:1040F0000835060028000C0000F0CEF8002803D098
:10410000012723781F4201D00020F8BD30006178DC
:10411000FFF77CF90028F7D028006288616800F07A
:104120003DF92378051E0BD01F42EDD103006268D4
:1041300030006178FFF792F90028E5D02800E4E725
:104140001F42E1D130006178FFF774F9DCE7C04627
:10415000F8B5CE46474680B58A8905000C000B7835
:10416000002A07D101261E423FD00020C0BCB9461C
:10417000B046F8BD9B0734D5FE2380261B02994626
:10418000B60027000837380000F0A4F88642ECD8C3
:104190000122237890461A42E7D128006178FFF780
:1041A00035F90028E1D0380000F094F8864231D883
:1041B0004146237862881942D7D14B461840061CE5
:1041C000904200D9161CB6B200226178002E00D0B1
:1041D000626833002800FFF741F90028C5D030009D
:1041E000C4E7114B40269946CBE74978FFF70EF913
:1041F0000028BAD0227863881642B6D100226178AE
:10420000002B00D062682800FFF728F90028ACD006
:104210006088ABE7424623781A42A6D1280061782D
:10422000FFF708F9A1E7C046C0FF0000F0B5C64699
:1042300000B5040006A805788020884617001E00F7
:104240000002824226D8E068002803D001214942BA
:1042500002F01AF82069002803D00121494202F037
:1042600013F84346236073045B0CED031D430023E6
:10427000E0686381A780E5802381002801D001F0F8
:10428000E3FF2069002801D001F0DEFF012080BC9F
:10429000B846F0BD0020FAE710B50489418982884C
:1042A000A3B288B28C4207D31B1A9BB2101C9A424D
:1042B00000D9181C80B210BD5100091A5B189BB2BE
:1042C000F4E7C04603894089181A43425841C0B2F6
:1042D0007047C04610B5048941898288A3B288B26C
:1042E0008C4207D31B1A9BB200209A4201D9D21AE2
:1042F00090B210BD5100091A5B189BB2F4E7C0469A
:1043000070B5040000690E00002803D00121494265
:1043100001F0BAFF25896089A288A9B283B28542DB
:104320002CD3CD1AADB2002D2ED0AA4208D2914284
:1043300030D3891A8BB263819A4203D89B1A9BB2FD
:104340009A42FBD9E28821685204520C5343300050
:10435000C918FDF7CDFB63890125591C89B2A288D4
:104360008B4213D900215200891A89B220696181D8
:10437000002801D001F068FF280070BD5500ED1A3B
:104380004D19ADB2002DD0D1618989B25200914250
:10439000ECDBE9E789188BB26381CDE7F0B54646DF
:1043A0004F46D646C0B506000069894690460028AB
:1043B00003D00121494201F067FF31897289B58834
:1043C0008BB294B2914254D31F1BBFB2002F4AD07C
:1043D000BD4205D2AB4251D25B199CB22F00748111
:1043E0004346B8453DD89FB2A54203D8641BA4B24A
:1043F000A542FBD9F28831685204520C90466243C0
:104400002B1B9BB2891842469F4225D953439BB22E
:104410001A0048469A46FDF76BFB434648467D1B0B
:1044200064195C4331685044A2B2FDF761FB7189A5
:10443000B588CB199BB26A00994216D99B1A9BB2D8
:1044400030697381002801D001F0FEFE3800E0BC25
:10445000BA46B146A846F0BD48467A43FDF748FB48
:10446000E5E73B1CBFE773899BB26A009342E7DB39
:10447000E4E76F003F1BDF19BFB2A7E75B1B9CB2ED
:10448000ACE7C046F8B50400C0680E00002803D0B1
:104490000121494201F0F8FE258920896189A2881D
:1044A000ADB283B28FB2884229D3DB1B9BB29A4252
:1044B00009D8E779FF0906D1E068002801D001F0AA
:1044C000C3FE3800F8BD95421ED32B009B1A9BB249
:1044D0009342FBD2E28820685204520C53433100CD
:1044E000C018FDF705FB6B1C9BB2A2889D4218D932
:1044F000002352009B1A9BB201272381DCE7510065
:10450000C91B5B189BB2D2E72B00E28820685204DB
:10451000520C53433100C018FDF7EAFA0135A28866
:10452000ABB252009342E7DBE4E7C046F0B5574632
:104530004546DE464E46E0B5140005000F0083B048
:10454000002A75D0C068002803D00121494201F03B
:104550009BFE2E89E9796A89AB88B6B292B2C90905
:1045600045D1964200D36DE059008A1AB21892B232
:10457000002189469A4234D29A1A111C92B2A24260
:1045800000D9211C8AB29146EA885204520C904606
:104590004A46B21892B292464A46D21A92B293460C
:1045A00034009E4203D3E41AA4B29C42FBD242469A
:1045B000624328681B1B9BB2801842464B4554D36C
:1045C0004B4639005A43FDF793FAAB885B005645DA
:1045D00001D89A4503DB5246D31A9BB29A465346FA
:1045E0002B81E868002825D001F02EFE22E0E98822
:1045F0004904490C88469C4227D2964247D3B11AB7
:1046000089B28C465800E11A89B28B466146091975
:10461000814208DBD11889B20E1BB6B28A46B2427B
:104620003BD9361AB6B2A21992B29246A146B7E762
:1046300000239946484603B0F0BCBB46B246A946A3
:10464000A046F0BDB21A92B292E700218946002B33
:10465000C7D04146E41A4C431600D118002289B253
:104660008A46994693463F199AE753439BB21A00EC
:1046700039005C440193FDF73BFA414622004A436E
:10468000019B286892B2F918FDF732FA9DE75800AD
:10469000811A711889B28C46B5E7A146B04200DD97
:1046A0007EE7BEE710B50400C068002803D00121F2
:1046B000494201F0E9FD2069002803D00121494267
:1046C00001F0E2FD0023E06863812381002801D02E
:1046D00001F0BAFD2069002801D001F0B5FD0120EC
:1046E00010BDC04670B50400C0680D00002803D09E
:1046F0000121494201F0C8FD2069002803D00121B1
:10470000494201F0C1FD7F21E379ED011940E068E4
:104710002943E171002801D001F096FD20690028AD
:1047200001D001F091FD012070BDC046F0B5CE462C
:1047300047460300944680B5012959D9012201203A
:104740009046012500260124404206E0221A9046A8
:10475000260001257419A1420DD91F181A5D7F5D2D
:10476000BA42F3D336D00125012230000136741944
:104770009046A142F1D84446624614600122914617
:10478000023A012500269046012407E04246A21A7B
:104790009146260001257419A1420ED94746DF191A
:1047A0001A5D7F5DBA42F1D818D001250122B046CA
:1047B000013674199146A142F0D8434601300133C5
:1047C000834203D36246494618001160C0BCB94613
:1047D000B046F0BD454505D00135BBE74D4504D099
:1047E0000135D8E776190125B4E776190125D2E716
:1047F000012399460023E5E7F0B54546DE465746D6
:104800004E461400E0B585B003AA80468A462000D3
:1048100019001D00FFF78AFF039B81460200E11883
:104820002000019300F002FF00285ED15346591B7F
:1048300080231B012B4300930123002700269B4666
:104840000800B0421CD33B004F4500D24B464246C5
:1048500091199D4227D98446080002E001339D4208
:1048600020D0E15CC25C9142F8D060469D421AD9EA
:104870005A464946521A9619F6180027B042E2D213
:1048800040460099504401F0CBF882445346581BEF
:10489000B042D8D2002005B0F0BCBB46B246A94613
:1048A000A046F0BD60464B464246013B91194F453C
:1048B00065D28446080003E05A1E9F420ED01300C2
:1048C000E15CC25C9142F7D06046013301379F4200
:1048D00008D8019B9C46EF1A6644B2E70137604650
:1048E0009F42F6D930004044D5E74B46EB1A4B4582
:1048F00000D24B460133009303935346591B802348
:104900001B012B4300269B4601270800B04218D309
:1049100042464B4691194D4520D98446080002E095
:1049200001339D4218D0E15CC25C9142F8D0010095
:1049300060469D4212D94A46BA1A9619F618B042F4
:10494000E6D240465946504401F06AF88244534644
:10495000581BB042DCD29DE7010060464B46013B4C
:104960000FD38446080001E0013B94D3E15CC25CB4
:104970009142F9D0009B60469C466644C6E74B4690
:10498000A4E7080087E7C046F0B5DE46574645462F
:104990004E46E0B5844C8346A54414008A4605AAD9
:1049A000190020001D00FFF7C1FEFFAA019006AB11
:1049B0001C3220C39342FCD1002D0FD02300A4460B
:1049C000681E6619201808241A7804AFC11A9200CC
:1049D0003F190133B9509E42F5D16446059B200032
:1049E000019AE118984600F021FE002800D07AE0F4
:1049F000002399465346591B80231B012B430393E5
:104A00002B006F1E00264D4608009946029408E0D0
:104A1000002D04D0984502D94B4642469B1A0025EA
:104A2000F618B04224D35B4608249919CB5D04AA3A
:104A30009B001219D358002BEAD1019A2B00954202
:104A400000D213009F422AD98446029C080002E04B
:104A500001339F4220D0E15CC25C9142F8D001005A
:104A6000029460469F421AD9019AB61A0136D6E7D7
:104A700058460399504400F0D3FF824453464A46B7
:104A8000981AB042CFD20020484B9D44F0BCBB46A0
:104A9000B246A946A046F0BD010060460294019AC4
:104AA000531E95427DD28446029C080003E05A1EA4
:104AB0009D4210D01300E15CC25C9142F7D001002E
:104AC00060460294013301359D420AD84B46424666
:104AD00046449D1AA5E701350100029460469D42B7
:104AE000F4D90800D0E7019AAB1A934257D30133A7
:104AF000039305935346591B80231B012B4399466F
:104B00006B1E002608001F000294B0420CD35B46C7
:104B100008249919CB5D04AA9B001219D358002BC5
:104B20000DD0F618B042F2D258464946504400F033
:104B300077FF82445346581BB042E8D2A3E7019A5C
:104B40001300BA4217D28446029C080002E00133E7
:104B5000BB420DD0E15CC25C9142F8D001000294EE
:104B600060469F4207D9019AB61A0136F618D9E76E
:104B7000010060460294019B013BB2D38446029C33
:104B8000080002E0013B00D27EE7E15CC25C91429A
:104B9000F8D0039B60469C4602946644B5E7130038
:104BA000A5E713008FE7C046E4FBFFFF1C040000ED
:104BB000F0B5CE46474680B50E00097805000400E2
:104BC00091B0002958D07278002A00D178E0B078EE
:104BD000002857D013020B4307041F43F3789C4669
:104BE0001B063B436746002F00D180E03279002A44
:104BF0006AD0300000F026FF8021890007000143C1
:104C0000280000F00DFF87424AD8FE2F00D985E02A
:104C1000C01B804640226846791CA844FCF762FF0E
:104C2000002F0FD0BA1994463F2233009146F8B2B4
:104C3000301849466C461A780A40C11A0133A1540B
:104C40009C45F6D12C003F256A46013CE35D2B4094
:104C5000D35CE418A04503D224E04C44A04521D302
:104C60006A46E35D31002B40D35C20003A00994650
:104C700000F0DCFC0028F0D1200011B0C0BCB94627
:104C8000B046F0BD0904114300232A7806E02C0049
:104C90001B04013513432A7899423DD0002AF6D1EE
:104CA0000024E9E74346D819DB5D002BF8D08021CA
:104CB000090100F0B5FE8044A045C5D20024DBE721
:104CC00001F00CF80400D7E72A78002AE8D019BAD6
:104CD000002301E08B4208D02C001B020135134356
:104CE0002A78002AF6D18B42DAD1033CC4E71204B9
:104CF000090611432A7800020143002AD0D000237C
:104D000001E0002ACCD02C00134301351B022A7885
:104D10009942F6D1023CAFE7013CADE701003B0010
:104D200032002800FFF730FE0400A5E7F0B5D646B4
:104D30004F4646468146C0B58A4616001D00012AE8
:104D400044DD002802D0436B002B41D05746013E82
:104D50000DE06B6838001B1B6B602B6822001B1971
:104D600041462B60FCF7C4FE3F19361B2BD06B6805
:104D7000002B06D12900484600F09AFC002820D1DB
:104D80006B682A68340090469E4200D91C002200BD
:104D90000A21404600F0AAFE0028DAD0434601303E
:104DA000C41A6B6822001B1B09C541463800FCF77A
:104DB0009FFE00233B555046E0BCBA46B146A8468C
:104DC000F0BD574502D000233B70F4E70020F3E725
:104DD00000F0F0FDBAE7C04610B504001300034A26
:104DE00010680A002100FFF7A1FF10BD6810002025
:104DF000F0B54E464546DE465746E0B50D000B354C
:104E0000060085B0162D27D8102900D9DAE000F069
:104E1000CFFC102518230221C84FFB181A005C682C
:104E2000083A944200D147E103226368A1689343A2
:104E3000E268CA6091600121E3185A6830000A43B1
:104E40005A6000F0B7FC2000083005B0F0BCBB464B
:104E5000B246A946A046F0BD07239D4300D5B1E068
:104E6000A94200D9AEE000F0A3FCFC235B009D4208
:104E700000D296E1690A00D1A8E0042900D950E1E6
:104E800038239846A90988443931CB000822524278
:104E90009446AA4FFB189C446346DC68A44514D092
:104EA000032399460B0061469C4607E0E068002A10
:104EB00000DBFBE0814200D1FCE004004A4663686D
:104EC00093435A1B0F2AF1DD41463A003C690832F0
:104ED000944200D1D9E0032063688343581B0F2814
:104EE00000DD62E13A617A610028A4DA7A689046CE
:104EF00080229200934200D3E4E0DA0858090123AB
:104F00008340404618438046D300DB199A68786096
:104F1000E360A2609C60D46001208B109840404503
:104F20005CD8434603420AD10323994343464000D9
:104F30000431034203D1400004310342FBD0032378
:104F4000B3469C460E00B8460190F0004044010074
:104F5000B246CB680BE064465A681F00A243DB6888
:104F6000541B0F2C00DDEFE0002C00DB09E199421F
:104F7000F1D101239946CA44534608319B07E8D131
:104F8000032205E003680838013E834200D003E2B3
:104F90003242F7D14346019A5B68934342465360DD
:104FA000019A520001929A4216D8002A06D113E0C3
:104FB00004229146019ACA44520001921342F7D04A
:104FC0005646C2E70C23002033603EE780233F2291
:104FD000402190469B0059E75E4647460322BC6845
:104FE000636893439A46AB4202D35A1B0F2A4FDCA5
:104FF000230053440293524B082099461B681033F8
:105000005B19019300F036FB4E4903900B688B4609
:10501000013306D08446019B4242013B6344134066
:1050200001933000019900F03BFD030080460133FD
:1050300000D1D8E0029B834200D9D2E04B460199CF
:105040005A688C46624403995A60029B10000139E9
:10505000434500D0E5E043460B4200D0E1E0BB68A9
:1050600001219846634653440B4341464B604946F1
:10507000C96A914201D24946CA624946096B9142C6
:1050800001D249460A634446AFE07B68984643E74D
:10509000012329001A431943651961603000BD607E
:1050A0006A6000F087FB20000830CEE6A268D0607E
:1050B0008260C0E6614608E7DC680231A34200D1A5
:1050C00003E7B1E65A0A042A00D883E0142A00D97B
:1050D00008E110005B3082465C32D200082040427A
:1050E0008446BA189444624692680B3081469445CF
:1050F00000D1DFE00800A2466146844602E09268E3
:10510000914204D04C465068A0439842F7D8D368E7
:10511000614654469C466346A260E3609C60D4604E
:10512000FAE614296ED9542900D9E4E06E23984692
:10513000290B88446F31CB00A8E6C04698110020A7
:105140005C19002090110020BA4601205146844687
:105150004919054350464560856847466046EB60FF
:105160005E469D6053463961796120430837486047
:10517000CF6030008F609C5000F01CFB5046083020
:1051800063E6BA4601205E465244516801435160CD
:10519000BA683000D3609A6000F00CFB3800083029
:1051A00053E62B00E908083336E6611988460121E9
:1051B0008C460D434146656039617961CA608A60F9
:1051C000624602434A60E050300000F0F3FA2000EB
:1051D00008303AE69A091000393238308246D20057
:1051E0007CE7BC4214D0BC686368032293435A1B1B
:1051F000AB4202D30F2A00DD4AE7300000F0DAFAB2
:10520000002022E65B23984688445C31CB003DE6D3
:105210004B465868019B9C464B4660445860039B34
:10522000591E5B461B68013370D04346029A9B1A95
:105230004A461B1853600723424640461A400292D2
:10524000184240D00398013384469B1A019A98442F
:105250004244019263440A409B1A194030008B4635
:1052600000F01EFC431C77D04346C01A03005B4489
:1052700001934B465A6801205A445A6043464146BE
:10528000BB60019B03434B60BC4200D1EFE6534639
:105290000F2B3FD907210C3B8B4361680140052050
:1052A00019436160E118486088600F2B49D8434674
:1052B0005B68DCE653469810012383404046184360
:1052C0008046786027E7019B039A43440B40D31A3A
:1052D000194030008B4600F0E3FB431CC4D100238F
:1052E0009B46C6E7542A17D81A0B10006F326E304F
:1052F0008246D200F2E6AA235B00994217D8DD3B32
:105300009846E90B88447831CB00BFE55B464246BE
:105310001A6090E7486070E7AA204000824226D8D1
:10532000DA0B1000783277308246D200D6E61C4B7A
:10533000994226D87C239846A90C88447D31CB001D
:10534000A4E521003000083100F086F84B465A6889
:10535000BB6898465B688AE6019A029B944642467F
:10536000083B63449B1A019300239B4681E70C484A
:1053700082420CD89A0C10007D327C308246D200DA
:10538000ACE6FE237E227F2190469B007EE5FE2236
:105390007E2092008246A1E643465B6800E6C04656
:1053A00054050000F0B5C646060000B508200D0003
:1053B00000F060F90400300000F0FAF9234B2100FE
:1053C00098469B685F6803239F4338001138401B51
:1053D0000019FCF78FFA451E6543AC4208DC00213A
:1053E000300000F05DFB43469B68DB19984206D015
:1053F000300000F0DFF9002080BCB846F0BD30007E
:10540000694200F04DFB01300ED0012243467F1B64
:105410009B6817430E4A5F60136830005B1B136084
:1054200000F0C8F90120E7E70021300000F038FB68
:1054300043469A68831A0F2BDADD064C0449246828
:10544000001B086001210B435360D1E79811002035
:105450006019002090110020F8B5CE46474605009F
:105460000C0080B5002957D000F0A2F901232100DB
:105470009C46083948686246030003249343CF18CA
:105480007A68654EA243B468BC4200D170E0BC1893
:10549000A14664467A60044221D10868091A1B18A3
:1054A0008868804648464068204034000834814679
:1054B000A04551D04046CC68C460A0604846002852
:1054C00011D19B185548BA68824200D17FE0F86834
:1054D000D060826001221A434A60CB5007E0484600
:1054E00040682042EDD062461A434A603B60802209
:1054F0009200934214D2DA0858090123834070685D
:1055000003437360D3009B199A68CB608A609960EB
:10551000D160280000F04EF9C0BCB946B046F8BDD5
:105520005C0A042C3DD89C09200039343830E40052
:1055300034192268083C0327944203D140E0926862
:10554000944203D05068B8439842F8D8D468CC60ED
:105550008A60A160D160DCE7002858D1B868D21811
:10556000FB68C3609860634613434B608A50D0E782
:105570009A186346034206D10B68C91A8868D21884
:10558000CB68C3609860012313434B60244BB16028
:105590001B689342BDD8234B28001968FFF702FF10
:1055A000B7E7142C07D9542C1AD81C0B20006F34E1
:1055B0006E30E400BCE720005C345B30E400B7E709
:1055C000012380108340706803437360BFE7D1609C
:1055D0009160CA608A6001221A434A60CB5098E702
:1055E000AA225200944205D8DC0B20007834773090
:1055F000E4009DE70C4A944205D89C0C20007D34C1
:105600007C30E40094E7FE247E20A40090E762460C
:105610001A434A603B607CE798110020A0110020EB
:10562000941100205C1900205405000030B5032AB5
:105630001AD90B0003439B0711D0551E002303E02A
:105640005A1C9D4213D01300C25CCC5CA242F7D01E
:10565000101B0DE0043A04300431032A04D9046815
:105660000B689C42F6D0E8E7551E002AE6D10020E0
:1056700030BDC046802310B55B01082801D1180059
:1056800010BD00F06FFC16230360173BF7E7C04620
:1056900009238A89002010B51340092B00D010BDC2
:1056A000024B186800F020FCF9E7C04668100020A3
:1056B00070B505000C00002802D0436B002B57D0BA
:1056C000002363600C22A35E9A065BD45A071AD4A7
:1056D000DA065AD508261E4239D104221343A38183
:1056E0002369002B3FD00C23E65EB3071ED122694D
:1056F00028006369E169266A2260B047606000287B
:1057000039DD002070BD216B0029E9D02300403332
:10571000994202D02800FFF79FFE00232363E36B2A
:105720006360002BDCD0A36B2360EAE701231D4AF2
:10573000A3811D491D4800F013FA0923A6813340B7
:10574000092BD4D12100280000F02AFBCFE721004B
:10575000280000F0C9FB002814D1A389A060B3433E
:105760001BB2A061B9E72100280000F01BFABAE7DC
:1057700000F020F9A4E70C22A35E00280BD1202220
:105780001343A38101204042BCE709222A60402242
:105790001343A381F6E70022626040221343A381F2
:1057A000F0E7C046A01500209156001070100020B0
:1057B0007047C0467047C0460020704710B5034A86
:1057C0000349044800F0CCF910BDC046A0150020E4
:1057D000715F00107010002041680B4B10B5040081
:1057E000994201D000F0C4FBA168084B994202D055
:1057F000200000F0BDFBE168054B994202D020007B
:1058000000F0B6FB10BDC04694190020FC19002022
:10581000641A002000207047F8B5CE464746344C45
:10582000344B354A2000002580B51A600423082235
:1058300000215C3025606560A56065662561656155
:10584000A561E360FCF74EF92C4B200099462362DA
:105850002B4B2C4F98466362CC23E5502A4B2B4EA2
:105860006367802308220021C430E550A762E66206
:10587000A566E5662567A567E567E461FCF732F98B
:10588000220084236832E2504A460433E250424602
:1058900020000433E2500433E7500433E6503C3335
:1058A000E5500433E5500433E550194A5C33E550C4
:1058B000583BE2500433E5502D300433E5500822C4
:1058C00004330021FF30E550FCF70CF92200EC23F3
:1058D000D032E2504A460433E25042460433E250AA
:1058E0000433E7500433E650C0BCB946B046F8BDB7
:1058F0009419002090190020BD5700101560001069
:10590000416000108160001009000100B1600010CA
:1059100012000200F8B5244B07001B68002B3BD097
:10592000224E7368B468013B03D51BE06834013B29
:1059300018D30C22A55E002DF8D120001C4B0822A4
:105940000021E36065662560A5606560256165618D
:10595000A5615C30FCF7C6F8256365636564A564E2
:105960002000F8BD3568002D01D02E00D9E7D621E2
:1059700038004900FFF73CFA041E10D00423D0225F
:105980000560250043600C300021A0605200FCF748
:10599000A9F834602E00C4E7FFF73EFFC0E70C23F0
:1059A00030603B60DCE7C04690190020A015002065
:1059B0000100FFFF436B10B5002B00D010BD044B5E
:1059C0004363044B1B68002BF8D1FFF725FFF5E775
:1059D000D9570010901900207047C0467047C04644
:1059E00010B50020024A034900F0BAF810BDC046C5
:1059F000A0150020B957001010B50020024A034935
:105A000000F0AEF810BDC046A015002015580010DB
:105A100010B5010000230022002000F04FFB10BD54
:105A200010B503004418002903D109E001339C425A
:105A300004D01A78002AF9D1181A10BD201AFCE7F0
:105A40000020FAE710B583070AD00300032102E023
:105A500001330B4205D01A78002AF9D1181A10BD6B
:105A6000030019680C4A0D4C8A188A4322420FD150
:105A70005968094A04338A188A43224208D159686E
:105A8000054A04338A188A432242F1D000E00133E8
:105A90001A78002AFBD1E1E7FFFEFEFE80808080BD
:105AA000002370B5064C050008002360FCF748F899
:105AB000431C00D070BD2368002BFBD02B60F9E79E
:105AC000CC1A002070B5074C074D641BA41005D0FC
:105AD000013CA300EB589847002CF9D100F0AAFB39
